:020000040800F2
:10000000D80700205D480008AD0F0008AF0F0008BA
:10001000B30F0008B70F0008BB0F00080000000076
:10002000000000000000000000000000BF0F0008FA
:10003000C10F000800000000C30F0008C50F000832
:100040007748000877480008774800087748000894
:10005000774800087748000877480008A73200086A
:100060007748000877480008774800087748000874
:100070007748000877480008774800087748000864
:100080007748000877480008774800087748000854
:100090007748000877480008774800087748000844
:1000A0007748000877480008774800087748000834
:1000B0007748000877480008774800087748000824
:1000C0007748000877480008774800087748000814
:1000D0007748000877480008774800087748000804
:1000E00077480008774800087748000877480008F4
:1000F00077480008774800087748000877480008E4
:1001000077480008774800087748000877480008D3
:1001100077480008774800087748000877480008C3
:1001200077480008774800087748000877480008B3
:1001300077480008774800087748000877480008A3
:100140007748000877480008774800087748000893
:100150007748000877480008774800087748000883
:100160007748000877480008774800087748000873
:100170007748000877480008774800087748000863
:10018000774800087748000800F002F800F046F8C9
:100190000AA090E8000C82448344AAF10107DA45E2
:1001A00001D100F03BF8AFF2090EBAE80F0013F0EE
:1001B000010F18BFFB1A43F00103184744890000E0
:1001C00064890000103A24BF78C878C1FAD8520771
:1001D00024BF30C830C144BF04680C6070470000C1
:1001E0000023002400250026103A28BF78C1FBD840
:1001F000520728BF30C148BF0B607047782905F00F
:100200004F84732905F03386002070471FB506F030
:10021000AEF905F022FD1FBD10B510BD05F034FE8E
:100220001146FFF7F3FF00F023F805F052FE03B488
:10023000FFF7F2FF03BC05F057FE00000B49D1F8B1
:1002400000C04A685CF8043B1068184442F8040B8C
:100250008C4528BFA1F1DC0C8A4228BFA1F1DC0249
:10026000C1F800C04A6020F0004070476C010020D7
:100270004FF4A06004F012FBA82004F06DFA02F025
:100280007BFE02F093FD17E000F0F2FF01F066FE46
:1002900001F01CF801F09CF801F04CF901F04AFA69
:1002A00001F0F1F901F020FB01F05BFB01F01BFF15
:1002B00001F09FFB01F046FEE6E7000070B5054641
:1002C0000E4614463146284602F05BFB204602F0FB
:1002D000CBFA70BD2DE9F05F04460D4616461F4669
:1002E000301B401C1FFA80FA781B401C1FFA80FB51
:1002F0003B4632462946204602F0CFFA4FF000082E
:100300000FE04FF0000906E00A9802F0ADFA09F19B
:1003100001001FFA80F9D145F6DB08F101001FFA50
:1003200080F8D845EDDBF9484088401E83B2F74895
:100330000088401E82B20021084602F0AEFABDE8F5
:10034000F09F2DE9FF4F85B081468A46002004903A
:1003500003900798A0EB09050898A0EB0A06CDF8D2
:100360000890CDF804A0002D01DD012705E00DB9AE
:10037000002702E04FF0FF376D42002E02DD4FF004
:10038000010806E016B94FF0000802E04FF0FF3810
:100390007642B54201DD2C4600E034464FF0000BBA
:1003A00021E0019A91B2029A90B202F0F4FA049814
:1003B000284404900398304403900498A04205DD3B
:1003C0000498001B04900298384402900398A042BD
:1003D00005DD0398001B03900198404401900BF148
:1003E00001001FFA80FB601C8345DADD09B0BDE81F
:1003F000F08F2DE9F04104460D4616461F46DDF804
:100400001880EA1991B2A21990B24246FFF756FF3E
:10041000EA1991B2A21B90B24246FFF74FFFEA1BC6
:1004200091B2A21990B24246FFF748FFEA1B91B27F
:10043000A21B90B24246FFF741FFAA1991B2E219FE
:1004400090B24246FFF73AFFAA1991B2E21B90B26E
:100450004246FFF733FFAA1B91B2E21990B242461F
:10046000FFF72CFFAA1B91B2E21B90B24246FFF7A6
:1004700025FFBDE8F0812DE9FF4F81B08246174688
:100480009846DDF838B0002445464FEA4800C0F1F0
:100490000306BBF1000F1FD01BE0A14608E04B464E
:1004A0002246009750460299FFF7A3FF09F1010980
:1004B000A945F4DD002E04DA042000FB0460861D4B
:1004C00006E0601B042101FB006000F10A066D1EBE
:1004D000641CAC42E1DD18E015E02B462246009793
:1004E00050460299FFF785FF002E04DA042000FB36
:1004F0000460861D06E0601B042101FB006000F122
:100500000A066D1E641CAC42E7DD05B0BDE8F08F45
:100510002DE9FF4F87B080468946149F0020059043
:100520000490B84507DB0998B84204DBB94502DB03
:100530000A98B84202DA0BB0BDE8F08F0998A0EB38
:1005400008040A98A0EB0905CDF80C80CDF80890B6
:10055000002C02DD4FF0010A06E014B94FF0000A4A
:1005600002E04FF0FF3A6442002D02DD4FF0010B34
:1005700006E015B94FF0000B02E04FF0FF3B6D4273
:10058000AC4201DD264600E02E460020069023E026
:1005900001203B460090159ADDE90210FFF76BFF42
:1005A0000598204405900498284404900598B0428A
:1005B00005DD0598801B059003985044039004982E
:1005C000B04205DD0498801B0490029858440290C4
:1005D0000698401C80B20690711C06988842D7DDB0
:1005E00000BFA8E72DE9F04104460D4616461F4618
:1005F0002B46324629462046FFF7A3FE3B462246BD
:1006000029462046FFF79DFE3B46324639462046A6
:10061000FFF797FE3B46324629463046FFF791FEEC
:10062000BDE8F081F8B504460D4616461F46384829
:1006300000883B463246294600902046FFF74AFE96
:10064000F8BD2DE9F04704460D4616461F46DDE984
:1006500008893B46324629462046FFF772FE4B4644
:10066000424639463046FFF76CFE2B462246494645
:100670004046FFF766FEBDE8F08702880B880380DE
:100680000A8070472DE9FF4F85B000260027BDF88E
:100690001800BDF82010884207DD08A906A8FFF75A
:1006A000ECFF07A905A8FFF7E8FFBDF82000BDF89B
:1006B0004C10884207DD08A913A8FFF7DEFF07A941
:1006C00012A8FFF7DAFFBDF81800BDF82010884225
:1006D00007DD08A906A8FFF7D0FF07A905A8FFF7BF
:1006E000CCFFBDF81800BDF84C1088423DD1BDF8D4
:1006F000140003900490BDF81C00BDF8101088424F
:1007000008DABDF81C0004900DE00000580000203D
:1007100030000020BDF81C00BDF80C10884202DD3E
:10072000BDF81C000390BDF84800BDF810108842C9
:1007300003DABDF84800049008E0BDF84800BDF8B1
:100740000C10884202DDBDF848000390F74800888D
:100750000090BDF81830BDF80C201946BDF8100007
:10076000FFF7B8FD09B0BDE8F08FBDF81C00BDF87B
:100770001410A0EB010BBDF82000BDF81810401AB2
:100780000290BDF84800BDF81410451ABDF84C00A1
:10079000BDF81810A0EB0109BDF84800BDF81C1009
:1007A000A0EB010ABDF84C00BDF82010401A0190E2
:1007B000BDF82000BDF84C10884202D1BDF8208061
:1007C00004E0BDF82000401E1FFA80F8BDF8184074
:1007D00027E0029896FBF0F0BDF81410084480B2B0
:1007E000049097FBF9F0BDF81410084480B2039010
:1007F0005E442F44BDF81000BDF80C10884203DDA4
:1008000003A904A8FFF739FFC848008823460090D1
:10081000BDF80C202146BDF81000FFF75BFD601C01
:1008200084B24445D5DDBDF82000201A00FB0AF64D
:10083000BDF81800201A00FB05F727E0019896FB89
:10084000F0F0BDF81C10084480B2049097FBF9F05A
:10085000BDF81410084480B2039056442F44BDF8EC
:100860001000BDF80C10884203DD03A904A8FFF7AF
:1008700004FFAE48008823460090BDF80C202146B6
:10088000BDF81000FFF726FD601C84B2BDF84C00D7
:100890008442D3DD00BF65E72DE9FF4F83B0814679
:1008A0008A469346DDE91064A04800880290A6F1CC
:1008B0002000C6B204EBD47009EB6000401E82B287
:1008C0000AEB0400401E83B251464846019401F0F1
:1008D000E4FF129860BB002527E00C2C07D106EB43
:1008E0004600934901EB800010F8058004E0914830
:1008F00000EB061010F8058000270FE008F08000DC
:1009000018B1584601F0B0FF02E0069801F0ACFFC4
:100910004FEA48604FEA1068781CC7B204EBD47104
:10092000B7EB610FEADB681CC5B2A542D5DB2FE04F
:1009300000252BE00C2C07D106EB46007C4901EB8F
:10094000800010F8058004E07A4800EB061010F8EB
:100950000580002713E07548A0F800B008F080007B
:1009600038B10AEB050291B209EB070290B202F02E
:1009700012F84FEA48604FEA1068781CC7B204EBDF
:10098000D471B7EB610FE6DB681CC5B2A542D1DBC1
:1009900066490298088068484088401E83B26648CD
:1009A0000088401E82B20021084601F076FF07B0A1
:1009B000BDE8F08F2DE9FE4306460F4615461C465E
:1009C000DDF828801DE05C480088401EB04204DB52
:1009D00059484088401EB84201DABDE8FE832078BD
:1009E0008DE8210155480388504802883946304631
:1009F000FFF752FF284605EBD07106EB61018EB27E
:100A0000641C20787E2802DC20782028DBDA00BFF6
:100A1000E3E710B50246012000E050430B1EA1F1B0
:100A20000104E1B2F9D110BD2DE9FF4F83B00746B3
:100A300091461E46109C4FF0000A002543E0701BB3
:100A4000401EC1B20A20FFF7E4FFB9FBF0F00A2113
:100A5000B0FBF1F201FB1208BAF1000F1BD1701EBE
:100A6000A84218DDB8F1000F13D100202021A346C1
:100A7000CDE90014029004EBDB71491001FB057114
:100A800088B22E490B8829490A880499FFF704FF88
:100A900017E04FF0010A002108F13000C0B2A34670
:100AA000CDE90141009004EBDB71491001FB0571B8
:100AB00088B222490B881D490A880499FFF7ECFE89
:100AC00000BF681CC5B2B542B9DB07B0BDE8F08F06
:100AD0002DE9FC5F0546884691469A46DDF830B020
:100AE00000954720019000246BE004EB04101449AA
:100AF00011F810009BF8001088425FD104EB04103D
:100B00000F4901EB400040789BF80110884255D115
:100B100008F10F0083B205F10F0082B2414628466A
:100B200001F0BBFE002647E0002740E03000002037
:100B300078650008EC6900085800002032000020A9
:100B4000DC6F00080D9890B904EB0410F84901EB34
:100B50004000801C805D80213941084018B1484622
:100B600001F082FE21E0504601F07EFE1DE0F148DA
:100B7000A0F8009004EB0410ED4901EB4000801C4C
:100B8000805D80213941084018B14146284601F076
:100B900002FF681C85B20098281A102805D1009D14
:100BA00008F101001FFA80F803E0781CC7B2082F93
:100BB000C8DB00BF701CC6B2202EB5DB00BF601CB6
:100BC00084B20198844290DBDB484088401E83B2A7
:100BD000D9480088401E82B20021084601F05DFE1F
:100BE000BDE8FC9F2DE9FC5F0546884691469A4684
:100BF000DDF830B0009507200190002467E004EB99
:100C0000840000EB4410CD4911F810009BF800104F
:100C1000884259D104EB840000EB4410C74901EB32
:100C2000400040789BF8011088424DD108F1170030
:100C300083B205F1170082B24146284601F02DFE2D
:100C400000263FE0002738E00D98A0B904EB8400AF
:100C500000EB4410B94901EB4000801C805D80210D
:100C60003941084018B1484601F0FEFD23E05046E6
:100C700001F0FAFD1FE0AF48A0F8009004EB8400FB
:100C800000EB4410AD4901EB4000801C805D8021E9
:100C90003941084018B14146284601F07CFE681CE5
:100CA00085B20098281A182805D1009D08F1010086
:100CB0001FFA80F803E0781CC7B2082FC4DB00BF1E
:100CC000701CC6B2482EBDDB00BF601C84B2019808
:100CD000844294DB98484088401E83B2964800883E
:100CE000401E82B20021084601F0D7FDBDE8FC9FFE
:100CF0002DE9FC5F0546884691469A46DDF830B0FE
:100D000000950420019000245FE004EB84108C49DE
:100D100011F810009BF80010884253D104EB8410A6
:100D2000874901EB400040789BF80110884249D187
:100D300008F11F0083B205F11F0082B24146284628
:100D400001F0ABFD00263BE0002734E00D9890B9A0
:100D500004EB84107A4901EB4000801C805D802107
:100D60003941084018B1484601F07EFD21E0504667
:100D700001F07AFD1DE06F48A0F8009004EB8410AC
:100D80006F4901EB4000801C805D802139410840A3
:100D900018B14146284601F0FEFD681C85B2009856
:100DA000281A202805D1009D08F101001FFA80F8BB
:100DB00003E0781CC7B2082FC8DB00BF701CC6B2A6
:100DC000802EC1DB00BF601C84B2019884429CDB92
:100DD00059484088401E83B257480088401E82B25E
:100DE0000021084601F059FDBDE8FC9F2DE9FF4FA9
:100DF00083B0064688469146DDE91147109DB2460C
:100E00004FF0000B71E0BBF1000F40D104EBD47147
:100E1000494A1288A2EB6101B14204DB4649498884
:100E2000091B414502DA07B0BDE8F08F2878802819
:100E300002DD4FF0010B58E028780D2806D108EBB1
:100E400004001FFA80F856466D1C1EE0102C0DDDC4
:100E5000102128788DE883004A4641463046069B9B
:100E6000FFF71AFD06F1080086B20EE028788DE83B
:100E700091004A4641463046069BFFF70DFD20464D
:100E800004EBD07106EB61018EB26D1C2DE02A4897
:100E90000088001BB04204DB27484088001B404507
:100EA00000DAC0E74FF0000B202C08D1CDE9005745
:100EB0004A4641463046069BFFF71AFF12E0182CBF
:100EC00008D1CDE900574A4641463046069BFFF718
:100ED00089FE07E0CDE900574A4641463046069B69
:100EE000FFF7F6FDAD1C301986B2287800288AD1AC
:100EF00000BF98E72DE9FE4F0E4617469846DDE9FC
:100F00000D9A0C9C204604F0D5FE85B20A4909884A
:100F1000A1EBC50000EBD071C1F34F0B43463A463D
:100F2000314658468DE81006FFF760FFBDE8FE8F9A
:100F3000DC6F000830000020580000204A790008CB
:100F4000507B00082DE9F05F0746884615461E468F
:100F5000DDF8289008EB0600401E83B27819401E89
:100F600082B24146384601F098FC00240AE019F8A4
:100F700014B009EB440090F801A04BEA0A2001F0FC
:100F800073FC641C05FB06F0A042F0DC06484088B8
:100F9000401E83B204480088401E82B200210846E9
:100FA00001F07BFCBDE8F09F58000020704700BFB7
:100FB000FEE700BFFEE700BFFEE700BFFEE77047A9
:100FC00070477047704700000CB5002001900090FA
:100FD0007648006840F480307449086000BF734868
:100FE000006800F4003000900198401C01900098C7
:100FF00018B90198B0F5A04FF1D16C48006800F421
:10100000003010B10120009001E000200090009815
:10101000012846D165484030006840F0805063495F
:10102000403108606248006840F440406049086010
:101030005E48083000685D4908310860084600686D
:1010400040F4004008600846006840F4A050086082
:101050005848091F0860081F006840F08070091F89
:10106000086000BF5148006800F000700028F9D007
:1010700040F20570504908604C480830006820F084
:1010800003004A49083108600846006840F0020041
:10109000086000BF45480830006800F00C000828D0
:1010A000F8D10CBD10B54548006840F470004349C4
:1010B00008603E48006840F001003C49086000209C
:1010C0003A4908310860394800683D4908403749C5
:1010D00008603C48091D0860081F006820F4802053
:1010E000091F0860002031490C310860FFF76CFFD0
:1010F0004FF0006031498039086010BD70B50020A4
:101100000022022300240221284D08352D6805F015
:101110000C0020B1042806D0082834D107E02A4D5D
:101120002A4E356033E02A4D284E35602FE01F4DA2
:101130002D1D2D68C5F380541C4D2D1D2D6805F007
:101140003F0154B1224DB5FBF1F5184E361D3668FE
:10115000C6F3881605FB06F209E01B4DB5FBF1F559
:10116000124E361D3668C6F3881605FB06F20F4D83
:101170002D1D2D68C5F301456D1C6B00B2FBF3F509
:10118000124E356003E0104D104E356000BF00BFB9
:10119000064D08352D68C5F303150E4E705D0B4DD9
:1011A0002D68C540094E356070BD00000038024012
:1011B0000070004008544007003C024088ED00E009
:1011C000FFFFF6FE103000240024F4000000002091
:1011D00000127A00040000203EB504464FF6FF706E
:1011E000FE4908801F200090FD480288142300213A
:1011F0000846FFF76FF8012010211F234FF6FF72FA
:10120000CDE90041029002210020FFF773FE1F206C
:101210000090F3484088401E83B2F1480088401E89
:1012200082B2EF484088143881B20020FFF752F8AC
:1012300001201021EBA2CDE900210290E84840886E
:10124000123881B21F234FF6FF720020FFF752FEC3
:101250004FF6FF700090E2484088153883B2E048AE
:101260000088401E82B215210020FFF733F83EBDF2
:101270000EB5E1A0FFF7B0FF01201021DEA21F2371
:10128000CDE900210290DA023C210020FFF732FE76
:1012900001201021DCA21F23CDE9002102904FF68E
:1012A0001F025A210020FFF725FE01201021DCA299
:1012B0001F23CDE9002102901A4678210020FFF774
:1012C00019FE40F2DC5003F0A9FA0EBD0EB54FF640
:1012D000FF700090C2484088401E83B2C04800881A
:1012E000401E82B200210846FEF7F4FF01201021C3
:1012F000CEA24FF6E073CDE9002102901F221E21FD
:101300001420FFF773FD4FF4487003F087FA4FF491
:1013100078400090B2484088401E83B2B0480088B0
:10132000401E82B200210846FEF7D4FF01201021A2
:10133000C0A24FF6E073CDE9002102901F221E21CA
:101340001420FFF753FD4FF4487003F067FA4FF491
:10135000FC600090A2484088401E83B2A0480088EC
:10136000401E82B200210846FEF7B4FF0120102182
:10137000B2A24FF6E073CDE9002102901F221E2198
:101380001420FFF733FD4FF4487003F047FA1F2095
:10139000009093484088401E83B291480088401EC8
:1013A00082B200210846FEF795FF01201021A5A278
:1013B0004FF6E073CDE9002102904FF478421E21F0
:1013C0001420FFF713FD4FF4487003F027FA0EBD09
:1013D0002DE9F04700249DA0FFF7FEFE00BF4CE082
:1013E000A04830F814007D490880DFF8F4C1BCF84B
:1013F000025005EBD57C4FEA6C0CACF16E0CC4EBE3
:1014000004190CEB490C0CF1640C1FFA8CF3DFF897
:10141000D0C1BCF8006006EBD67C4FEA6C0CACF196
:101420006E0CC4EB04190CEB490C0CF1640C1FFAA4
:101430008CF2DFF8ACC1BCF8027007EBD77C4FEA46
:101440006C0CACF16E0CC4EB04190CEB490C1FFADC
:101450008CF1DFF88CC1BCF8008008EBD87C4FEA37
:101460006C0CACF16E0CC4EB04190CEB490C1FFABC
:101470008CF0FFF7B7F8601CC4B2052CB0DB40F26B
:10148000DC5003F0CBF900244CE0764830F814002F
:1014900052490880DFF848C1BCF8027007EBD77CDE
:1014A0004FEA6C0CACF16E0CC4EB04190CEB490C5C
:1014B0000CF1640C1FFA8CF3DFF824C1BCF8005067
:1014C00005EBD57C4FEA6C0CACF16E0CC4EB041947
:1014D0000CEB490C0CF1640C1FFA8CF2DFF800C124
:1014E000BCF8028008EBD87C4FEA6C0CACF16E0CB7
:1014F000C4EB04190CEB490C1FFA8CF1DFF8E0C0C7
:10150000BCF8006006EBD67C4FEA6C0CACF16E0CBC
:10151000C4EB04190CEB490C1FFA8CF0FFF782F8AE
:10152000601CC4B2052CB0DB40F2DC5003F076F94D
:10153000BDE8F087F8B500244BA0FFF74DFE00BFD3
:101540001FE00020264B00905D8805EBD5735B10F3
:10155000463BC4EBC40707EB8707D919204B1E880D
:1015600006EBD6735B10463BC4EBC40707EB87075B
:10157000D8193C4B33F814203223FEF77CFF601C53
:10158000C4B2052CDDDB40F2DC5003F047F9002447
:101590001FE00120124B00905D8805EBD5735B10B6
:1015A000463BC4EBC40707EB8707D9190C4B1E88D1
:1015B00006EBD6735B10463BC4EBC40707EB87070B
:1015C000D819284B33F814203223FEF754FF601C3F
:1015D000C4B2052CDDDB40F2DC5051E030000020CD
:1015E000580000204C434420544553542050524F3F
:1015F0004752414D00000000D7DBBACFB2E2CAD457
:10160000B3CCD0F200000000352E302220535344DA
:10161000313936332034383058383030000000004B
:10162000323032302D30352D31330000424C2054D1
:101630006573740052454420000000004752454540
:101640004E200000424C554520000000B2E2CAD4B2
:10165000333A475549BED8D0CECCEEB3E4B2E2CA55
:10166000D400000014000020B2E2CAD4343A475536
:1016700049BBADD4B2CCEEB3E4B2E2CAD4000000B0
:1016800003F0CCF8F8BD0EB5DFA0FFF7A5FD0020F4
:101690000C21E2A24FF6E073CDE9002102901F2257
:1016A0001E210A20FFF7A2FB01200C21E6A24FF623
:1016B000E073CDE9002102901F222D210A20FFF7BF
:1016C00095FB00200C21EBA24FF6E073CDE9002141
:1016D00002901F223C210A20FFF788FB00201021E6
:1016E000ECA24FF6E073CDE9002102901F225021B9
:1016F0000A20FFF77BFB01201021F1A24FF6E073D7
:10170000CDE9002102901F2264210A20FFF76EFB21
:1017100000201021F5A24FF6E073CDE900210290E0
:101720001F2278210A20FFF761FB4FF4966003F037
:1017300075F80EBD2DE9FC5F0024F4A0FFF74CFD09
:1017400000BF60E0F84830F81400F8490880F84815
:10175000458805EBD57040101138C4EB041100EB3F
:10176000410081B2F248068806EBD67040100B3873
:10177000C4EB041200EB420080B2DFF8B4C3CDE941
:101780000001BCF8027007EBD77C4FEA6C0CACF19F
:10179000670CC4EB041B0CEB4B0C1FFA8CF3DFF84B
:1017A00090C3BCF8008008EBD87C4FEA6C0CACF11D
:1017B0003D0CC4EB041B0CEB4B0C1FFA8CF2DFF856
:1017C00070C3BCF8029009EBD97C4FEA6C0CACF109
:1017D000110CC4EB041B0CEB4B0C1FFA8CF1DFF863
:1017E00050C3BCF800A00AEBDA7C4FEA6C0CACF1F9
:1017F0006E0CC4EB041B0CEB4B0C1FFA8CF0FEF7C9
:1018000020FF601CC4B2052C9CDB40F2DC5003F0CE
:1018100005F8002460E0C44830F81400C34908808B
:10182000C348458805EBD57040101138C4EB04114E
:1018300000EB410081B2BE48068806EBD67040102E
:101840000B38C4EB041200EB420080B2DFF8E0C2B8
:10185000CDE90001BCF8027007EBD77C4FEA6C0CB5
:10186000ACF1670CC4EB041B0CEB4B0C1FFA8CF3B4
:10187000DFF8BCC2BCF8008008EBD87C4FEA6C0CE7
:10188000ACF13D0CC4EB041B0CEB4B0C1FFA8CF2BF
:10189000DFF89CC2BCF8029009EBD97C4FEA6C0CD3
:1018A000ACF1110CC4EB041B0CEB4B0C1FFA8CF1CC
:1018B000DFF87CC2BCF800A00AEBDA7C4FEA6C0CC3
:1018C000ACF16E0CC4EB041B0CEB4B0C1FFA8CF050
:1018D000FEF7D8FE601CC4B2052C9CDB40F2DC5045
:1018E00002F09CFFBDE8FC9F0EB592A0FFF774FCD0
:1018F0000020102194A24FF6E073CDE90021029060
:101900001F221E210A20FFF771FA0020102192A247
:101910004FF6E073CDE9002102901F2232210A2008
:10192000FFF764FA012018218FA24FF6E073CDE98A
:10193000002102901F2246210A20FFF757FA0120BA
:1019400020218FA24FF6E073CDE9002102901F22E3
:1019500064210A20FFF74AFA4FF4966002F05EFF16
:101960000EBD0EB58AA0FFF737FC8E4828231A4615
:101970001E2100900846FFF7E5FA012010218AA2F7
:101980004FF6E073CDE9002102901F224B212A205F
:10199000FFF72CFA834828231A461E2100905A206C
:1019A000FFF7D0FA012010217FA24FF6E073CDE9B6
:1019B000002102901F224B216620FFF717FA794879
:1019C00028231A461E2100909620FFF7BBFA01201B
:1019D000102175A24FF6E073CDE9002102901F227D
:1019E0004B21A220FFF702FA4FF4966002F016FF97
:1019F0000EBD10B588B000246C4B0FCBCDE906238B
:101A0000CDE9040100BFFEE0B2E2CAD4363AD3A267
:101A1000CEC4CFD4CABEB2E2CAD4000036583132E6
:101A20003A6162636465666768696A6B6C6D6E6F64
:101A3000707172737475767778797A3031323334A5
:101A40003536373839000000365831323A41424392
:101A50004445464748494A4B4C4D4E4F50515253CE
:101A60005455565758595A30313233343536373841
:101A700039000000365831323A7E21402324255E59
:101A8000262A28295F2B7B7D3A3C3E3F2F7C2D2B3D
:101A90002E000000385831363A616263646566672B
:101AA00068696A6B6C6D6E6F70717273747576773E
:101AB00078797A30313233343536373839000000AE
:101AC000385831363A4142434445464748494A4BE3
:101AD0004C4D4E4F505152535455565758595A30F9
:101AE0003132333435363738390000003858313622
:101AF0003A7E21402324255E262A28295F2B7B7DE0
:101B00003A3C3E3F2F7C2D2B2E000000B2E2CAD47F
:101B1000353A47554920547269616E676C65CCEE61
:101B2000B3E4B2E2CAD40000140000203000002068
:101B300058000020B2E2CAD4373AD6D0CEC4CFD4AF
:101B4000CABEB2E2CAD4000031365831363ABBB60A
:101B5000D3ADC4FA0000000031365831363A57652B
:101B60006C636F6D6500000032345832343AC9EE50
:101B7000DBDACAD0D6D0CEC4B2E2CAD400000000AC
:101B800033325833323AD7D6CCE5B2E2CAD4000069
:101B9000B2E2CAD4383ACDBCC6ACCFD4CABEB2E2E7
:101BA000CAD40000587D000851510000E4890008A3
:101BB0004FF6FF7000F013FF204601F09AF8FCA0EA
:101BC000FFF70AFB0121102204A850F824004FF669
:101BD000E073CDE9012100901F221E211420FFF7A0
:101BE00005F9F84828231A46322100901E20FFF7F5
:101BF000A9F94FF47A7002F011FE4FF47A7002F0F6
:101C00000DFE601CC4B2042CD2DB012001F071F87F
:101C100008B010BD08B5002500264FF4784700F045
:101C200081FDE9A0FFF7D8FA0120EF49009009886B
:101C3000183988B2EDA310220021FEF7BBFE38460A
:101C4000EB490880E849009009881C398AB2E649C6
:101C50000988323988B212230221FEF73BFBBEE02D
:101C6000012000F07DFD0446002001F08FFCE148DA
:101C7000007D00F08000002879D0DE480088DA4935
:101C80000988884276DADB484089D7494988884202
:101C900070DAD8480188D44800881838814222DD9B
:101CA000D448408910281EDAC7A0FFF795FA012012
:101CB000CD4900900988183988B2CCA310220021A0
:101CC000FEF778FECA4807800088C7490090098857
:101CD0001C398AB2C4490988323988B212230221D8
:101CE000FEF7F8FA46E0C3480188BF48008832385A
:101CF000814234DDBF480188BB4800881C388142DE
:101D00002DDABC484089142829DA052096FBF0F129
:101D100000FB1160B84931F81080B349CDF800805C
:101D200009881C398AB2B0490988323988B212232D
:101D30000221FEF7CFFA3046711C8EB2052190FBCE
:101D4000F1F201FB1200AC4931F81000A8490880FB
:101D5000084607880A2002F061FD0BE007E0A54A6B
:101D600051891088A24A128801F0F5FB02E00A208E
:101D700002F054FD012C25D14FF6FF7000F02FFE2C
:101D800001F0BDFD01F07AFC8FA0FFF725FA0120DC
:101D9000954900900988183988B294A3102200212F
:101DA000FEF708FE9248078000888F490090098856
:101DB0001C398AB28C490988323988B2122302212F
:101DC000FEF788FA681C85B21E2D08D100258B48C5
:101DD000006808B9012000E00020884908603FE75A
:101DE00088B000240026002501F0C6F884A0FFF783
:101DF000F3F901207C4900900988183988B27BA347
:101E000010220021FEF7D6FD4FF478407849088073
:101E100097E0681CC5B202F00FFB002479E075481A
:101E2000017D0120A040014000296AD0714830F8AE
:101E300014006D490988884268DA6E480A3030F823
:101E4000140069494988884260DA03A830F8240000
:101E50004FF6FF7188420CD1664830F8140003A990
:101E600021F8240063480A3030F8140001EB8401A3
:101E70004880604830F814105B4800881838814268
:101E80001BDD5C480A3030F81400102815DA012DEB
:101E900000DD3CE05AA0FFF79FF901205249009075
:101EA0000988183988B251A310220021FEF782FD5B
:101EB0004FF478404E49088015E05A4830F8140035
:101EC00002214C4F0A37CDE9001037F814300A3F91
:101ED00037F8142003AF07EB8407798803AF37F88E
:101EE0002400FEF715FB434830F8140003A921F83D
:101EF000240040480A3030F8140001EB8401488087
:101F000004E04FF6FF7003A921F8240000BF601C15
:101F1000C4B2052C83DB052002F080FC701CC6B225
:101F20001E2096FBF0F100FB116038B933480068C1
:101F300008B9012000E0002030490860042D00DDD0
:101F4000002566E701F042F82A4890F8240000F0E6
:101F5000800008B1FFF744FFFFF75CFE70B590B05A
:101F600000200D900E900F90242104A803F0C1FED4
:101F70002DA0FFF731F900F0E2FF064645F261704F
:101F8000864201D141F6631632462DA10DA803F019
:101F900023FD012010210DAA4FF6E073CDE90021A9
:101FA00002901F2219213220FEF720FF002492E028
:101FB000B2E2CAD431303AC6C1C4BBD0FDD7AAB24E
:101FC000E2CAD400587D0008B2E2CAD431313A5492
:101FD0006F75636828B0B44B455930D0A3D7BC297E
:101FE00020202020202000005800002052535400C0
:101FF00030000020680000201400002084024042CD
:10200000B2E2CAD431313AB5E7C8DD546F756368BE
:10201000B2E2CAD428D6A7B3D635B5E3B4A5C3FE79
:1020200029202000D8890008B2E2CAD4323AB6C1C9
:102030004944BACDD1D5C9ABD6B5B2E2CAD40000B5
:1020400049443A3078257800864830F814008649AB
:10205000088004EBC40000EB041000F1410304EB22
:10206000C40000EB04102D3081B232221E20FEF796
:10207000D9FA04EBC40000EB041000F1370128206A
:1020800000F095FC054678480088A84204D177A165
:102090000DA803F0EBFD03E075A10DA803F0E6FD2C
:1020A0000DAB2A4674A104A803F096FC0120102170
:1020B00004AACDE90021029004EBC40000EB041057
:1020C0002F3081B24FF6E073674802883C20FEF75C
:1020D0008DFE601CC4B2072CB6DB40F2DC5002F06F
:1020E0009DFB10B070BD38B56AA0FFF775F81F20D2
:1020F0005D4908806C4803F09BFD01206BA3102212
:10210000322100900F20FEF755FC01206DA3102214
:10211000462100900F20FEF74DFC01206FA31022F6
:102120005A2100900F20FEF745FC012071A31022D8
:102130006E2100900F20FEF73DFC012073A31022BA
:10214000822100900F20FEF735FC012075A310229C
:10215000962100900F20FEF72DFC012076A310227F
:10216000AA2100900F20FEF725FC4FF478403E494D
:102170000880002473E0FEF761F842F2107190FBD2
:10218000F1F201FB1205102005232A4632210090AE
:102190006420FEF749FCFEF751F842F2107190FB03
:1021A000F1F201FB1205102005232A46462100907A
:1021B0006420FEF739FCFEF741F842F2107190FB03
:1021C000F1F201FB1205102005232A465A21009046
:1021D0006420FEF729FCFEF731F842F2107190FB03
:1021E000F1F201FB1205102005232A466E21009012
:1021F0006420FEF719FCFEF721F842F2107190FB03
:10220000F1F201FB1205102005232A4682210090DD
:102210006420FEF709FCFEF711F8322190FBF1F281
:1022200001FB1205102005232A4696210090642008
:10223000FEF7FAFBFEF702F8642190FBF1F201FBD6
:102240001205102005232A46AA2100906420FEF7DB
:10225000EBFB4FF4FA7002F0E1FA601CC4B20F2CF1
:1022600089DB38BD1E000020300000204F4B0000ED
:102270004552524F520000007265616420636F6CDA
:102280006F723A30782530345820202020202025C5
:1022900073000000B2E2CAD4393AB6AFCCACCAFD82
:1022A000D7D6CFD4CABE000040E201002048434840
:1022B0004F3A202020202020202020202075672F2A
:1022C0006D3300002020434F323A20202020202070
:1022D000202020202070706D000000002054564FF8
:1022E000433A202020202020202020202075672F06
:1022F0006D330000504D322E353A20202020202012
:10230000202020202075672F6D33000020504D3194
:10231000303A202020202020202020202075672FE8
:102320006D33000020205445503A202020202020EA
:102330002020202020430000202048554D3A202016
:1023400020202020202020202025000010B500F093
:10235000BBF810BD70B50446002600F0D4F8254641
:10236000E11704EB11610912A02202EB4101C8B28E
:1023700000F075F900F008F9E11704EB116109129A
:10238000A4EB0121C8B200F06AF900F0FDF800F0FA
:10239000BAF8A12000F063F900F0F6F8002000F090
:1023A0008BF9064600F0D1F8304670BD70B5044692
:1023B0000E4600F0A8F82546E11704EB116109125A
:1023C000A02202EB4101C8B200F049F900F0DCF8AC
:1023D000E11704EB11610912A4EB0121C8B200F06E
:1023E0003EF900F0D1F8304600F039F900F0CCF8B1
:1023F00000F0ABF80A2002F011FA70BD2DE9F041AF
:1024000005460E461746002409E0E20026FA02F2CD
:10241000D1B22A1990B2FFF7C9FF601CC4B2BC4206
:10242000F3DBBDE8F0812DE9F04107460C460026BC
:10243000002509E036023919491B491E88B2FFF709
:1024400089FF0644681CC5B2A542F3DB3046BDE8EF
:10245000F08110B5FF20FFF77DFF0446552C01D118
:10246000002010BD5521FF20FFF7A0FFFF20FFF740
:1024700071FF0446552C01D10020F2E70120F0E75E
:1024800070B506460C46154608E03046721C96B2FA
:10249000FFF760FF04F8010B681E85B2002DF4D130
:1024A00070BD70B505460C46164606E021782846F4
:1024B000FFF77CFF681C85B2641C301EA6F1010189
:1024C0008EB2F3D170BD00001CB50121022003F0D3
:1024D0005DF84FF44070009001208DF8040000205A
:1024E0008DF8060003208DF8050001208DF8070007
:1024F0006946894802F0C8FA01208849086088497D
:10250000C1F8A4021CBD10B58348006820F4402027
:10251000814908600846006840F480200860012076
:102520007E49091D08607E49C1F8A002042002F01E
:102530002DF900207949091D0860042002F026F9D0
:1025400000207749C1F8A00210BD10B5724800689C
:1025500020F44020704908600846006840F480205C
:10256000086000206D4908606D49C1F8A40204208C
:1025700002F00CF90120694908606949C1F8A40218
:10258000042002F003F910BD10B500246248006871
:1025900020F4402060490860084600680860012077
:1025A0005E49091D086002F0F1F801205C49C1F89C
:1025B000A00202F0EBF807E0601CC4B2FA2C03DDC5
:1025C000FFF7C3FF012010BD54487C380068002885
:1025D000F2D15249086000BFF5E710B500204F491D
:1025E00008604D48006820F440204B4908600846C8
:1025F000006840F48020086000204949C1F8A40226
:10260000022002F0C3F8012044490860022002F0D1
:10261000BDF800204249C1F8A00210BD10B500204D
:102620003E4908603C48006820F440203A49086070
:102630000846006840F48020086001203849C1F84D
:10264000A402022002F0A2F801203449086002200E
:1026500002F09CF800203249C1F8A00210BD70B50C
:1026600004462D48006820F440202B4908600846A5
:10267000006840F480200860002028490860002598
:1026800017E0E0092549091D08606006040E0220D4
:1026900002F07CF801202249C1F8A002022002F0D9
:1026A00075F800201D490860022002F06FF8681CD0
:1026B000C5B2082DE5DB70BD70B50546002416488F
:1026C000006820F44020144908600846006808604B
:1026D000002616E0002011490860022002F056F89A
:1026E00001200F49C1F8A0026006040E0B487C3897
:1026F000006808B1601CC4B2012002F047F8701CE9
:10270000C6B2082EE6DB15B9FFF788FF01E0FFF738
:1027100064FF204670BD000000040240A0824042D9
:10272000008040421CB50121112002F02FFF102033
:10273000009000208DF8040003208DF80500012092
:102740008DF807006946234802F09EF901200090A9
:1027500002208DF8070069461F4802F095F91CBD5C
:1027600010B5044614B101201C4908701B480078BC
:10277000F8B11021174802F0E9F928B101211648F3
:1027800002F0E4F9012814D10A2002F047F80020F1
:102790001249087010210F4802F0D8F908B9012039
:1027A00010BD01210C4802F0D1F901280FD10420FD
:1027B000F6E71021074802F0C9F9012807D10121E5
:1027C000054802F0C3F910B901200449087000203F
:1027D000E6E7000000100240000002402E0000204A
:1027E00008B5FE4800880090BDF8000008BD01B59E
:1027F000BDF800000090BDF80000F849891E08806F
:1028000008BD01B5BDF800000090BDF80000F34917
:10281000088008BD00B5FFF7E3FF00BDEF4A921E38
:102820001080921C1180704770B506460C46154604
:102830003046FFF7DCFF06E0FFF7ECFF04F8010B82
:10284000642001F0A3FF281EA5F10105F4D170BD9D
:1028500000B5E3490889FFF7CAFF00BD00B5E049AC
:102860004889FFF7C4FF00BDDC490880704710B5F8
:10287000034603F0F800000201F0FC0440EAC40043
:1028800040EAD20010BD10B50024FFF7C3FF044694
:10289000012001F07BFF204610BD70B504460D46B7
:1028A0001E46CF48807920B1022813D0032843D197
:1028B00021E0A01884B2A01A82B2A01A84B2C8483B
:1028C0000088001B401E84B2C5480088801A401E44
:1028D00082B232E0A81985B2A81B86B2A81B85B2C5
:1028E000BF484088401B401E85B2BD484088801BC1
:1028F000401E86B221E0A01884B2A01A82B2A01AAB
:1029000084B2B7480088001B401E84B2B4480088D7
:10291000801A401E82B2A81985B2A81B86B2A81BD5
:1029200085B2AF484088401B401E85B2AC48408805
:10293000801B401E86B200E000BF00BFA849888906
:10294000FFF755FF2012FFF75CFFE0B2FFF759FFDA
:102950001012FFF756FFD0B2FFF753FFA049C88906
:10296000FFF745FF2812FFF74CFFE8B2FFF749FFDA
:102970003012FFF746FFF0B2FFF743FFFFF768FFA3
:1029800070BD30B504460D462B46224629462046EA
:10299000FFF783FF30BD30B504460D46294620467B
:1029A000FFF7EFFF8F480088FFF75EFF30BD70B57F
:1029B00004460D468A480088A04203DD88484088C6
:1029C000A84201DC002070BD29462046FFF7D9FF50
:1029D000FFF744FFFFF757FF06463046F3E770B5B1
:1029E00004467F4800887E49498800FB01F67C4800
:1029F0004088401E83B27A480088401E82B200217F
:102A00000846FFF74AFF002502E0744804806D1C69
:102A1000B542FAD370BD70B52DED048B0446BE20CF
:102A2000FFF7E5FE0520FFF7ECFE204603F0DFFA96
:102A300041EC190B9FED6C0B53EC102B03F026FBB4
:102A400041EC180B03F0A6FA85B22846FFF7D9FE31
:102A50000120FFF7D6FEFF20FFF7D3FE0020FFF78F
:102A6000D0FE0020FFF7CDFEBDEC048B70BD00B59D
:102A70009FB001211A2002F089FD0121084602F0D1
:102A8000BDFD4FF400401D9001208DF8780000201E
:102A90008DF87A0002208DF8790001208DF87B00F6
:102AA0001DA9534801F0F0FF4FF400501D90012084
:102AB0008DF8780000208DF87A0003208DF87900D9
:102AC00001208DF87B001DA94A4801F0DDFF4CF282
:102AD00033701D9002208DF8780000208DF87A0068
:102AE00003208DF8790001208DF87B001DA9414855
:102AF00001F0CAFF4FF680701D9002208DF878001B
:102B000000208DF87A0003208DF8790001208DF8DF
:102B10007B001DA9384801F0B7FF4FF408601D90F5
:102B200002208DF8780000208DF87A0003208DF8BF
:102B3000790001208DF87B001DA92E4801F0A4FF2B
:102B40000C2200212B4802F02AF80C2201212948EE
:102B500002F025F80C220421264802F020F80C226D
:102B60000521244802F01BF80C220821214802F01C
:102B700016F80C2209211F4802F011F80C220A2134
:102B80001C4802F00CF80C220E211A4802F007F83B
:102B90000C220F21174802F002F80C2207211648D8
:102BA00001F0FDFF0C220821134801F0F8FF0C2270
:102BB0000921114801F0F3FF0C220A210E4801F00F
:102BC000EEFF0C220B210C4801F0E9FF0C2211460C
:102BD000094801F0E4FF0C220D210FE00000026023
:102BE0005800002030000020666666666666044075
:102BF00000040240000C024000100240D74801F0DF
:102C0000CEFF0C220E21D54801F0C9FF0C220F2166
:102C1000D24801F0C4FF0C220721D14801F0BFFFC8
:102C20000C220B21CE4801F0BAFF0F2007900020A4
:102C300008903C20099000200A900B900C900D9079
:102C400009200090002001900820029000200390AD
:102C50000490059006900E900F9010901020119007
:102C60000020129014901390159016904FF48050FD
:102C70001790002018904FF48040199000201A906F
:102C800007A81B90CDF870D00EA801F0DCFF012141
:102C9000002002F063F8B348006820F00F004FF006
:102CA0002041C1F804010846D0F8040120F4706006
:102CB000C1F804010846D0F8040140F00400C1F84E
:102CC00004010846D0F8040140F48060C1F8040112
:102CD0001FB000BD10B50020A3490860642001F0BA
:102CE0009DFD0120A149C1F8B402322001F096FDFA
:102CF00010BD00B503462C209D4908812E20488137
:102D00001846D91703EB91718910A3EB8101984AFA
:102D100091711046807930B1012814D0022822D058
:102D2000032840D12FE02B20914988812A20C88197
:102D30004FF4F07008804FF448704880A02136208E
:102D4000FFF76CFD30E02A20894988812B20C8815B
:102D50004FF4487008804FF4F0704880002136200E
:102D6000FFF75CFD20E02B20814988812A20C88163
:102D70004FF4F07008804FF448704880602136208E
:102D8000FFF74CFD10E02A20794988812B20C8816B
:102D90004FF4487008804FF4F0704880C02136200E
:102DA000FFF73CFD00E000BF00BF00BD10B5FFF71E
:102DB0005EFE642001F032FDE220FFF718FD1D20C9
:102DC000FFF71FFD0220FFF71CFD0420FFF719FD90
:102DD000642001F0DBFCE020FFF709FD0120FFF794
:102DE00010FD0A2001F01AFDE020FFF700FD03208E
:102DF000FFF707FD0C2001F011FD0120FFF7F7FCA4
:102E00000A2001F00BFDE620FFF7F1FC0320FFF79D
:102E1000F8FCFF20FFF7F5FCFF20FFF7F2FCB020E5
:102E2000FFF7E5FC2020FFF7ECFC0020FFF7E9FCB2
:102E30000320FFF7E6FC40F21F30FFF7E2FC012021
:102E4000FFF7DFFC40F2DF10FFF7DBFC0020FFF7AD
:102E5000D8FCB420FFF7CBFC0420FFF7D2FC40F2F3
:102E60001F40FFF7CEFC0020FFF7CBFC2E20FFF722
:102E7000C8FC0020FFF7C5FC0020FFF7C2FC0020C3
:102E8000FFF7BFFC0020FFF7BCFCB620FFF7AFFC4C
:102E90000220FFF7B6FC4FF40370FFF7B2FC0020EE
:102EA000FFF7AFFC1720FFF7ACFC1520FFF7A9FCDC
:102EB0000020FFF7A6FC0020FFF7A3FCF020FFF79F
:102EC00096FC0320FFF79DFC2920FFF790FCD02003
:102ED000FFF78DFC0020FFF794FCBE20FFF787FC76
:102EE0000520FFF78EFCFE20FFF78BFC0120FFF78B
:102EF00088FC0020FFF785FC0020FFF782FC002003
:102F0000FFF77FFCB820FFF772FC0320FFF779FC86
:102F10000120FFF776FCBA20FFF769FC0120FFF7DC
:102F200070FC6420FFF777FD0120FFF7E2FE01202F
:102F3000104908604FF6FF70FFF751FD10BD08B54E
:102F40000020009003226946A120FFF76DFC9DF848
:102F500002009DF8011040EA012008BD0010024067
:102F6000000C0240040100A0B482414200804142B2
:102F700058000020BC8240421CB50121052002F00F
:102F800005FB0220009001208DF8040000208DF840
:102F9000060003208DF8050001208DF80700694622
:102FA000084801F071FD0221064801F0E9FD2020EA
:102FB00000906946044801F067FD2021024801F0B5
:102FC000DFFD1CBD000002400008024010B50024D7
:102FD00001F00DFA0446054890F8240040F0800006
:102FE000024981F82400204610BD0000680000203E
:102FF00010B5022001F0CAFB10BD1CB5012106204E
:1030000002F0C4FA012000908DF8040000208DF831
:10301000060003208DF8050001208DF807006946A1
:10302000864801F031FD1020009001208DF8040049
:103030006946834801F028FD0120824908608249E1
:10304000C1F890021CBD10B57D48006820F44070A6
:103050007B4908600846006840F4807008600120E1
:103060007A4908607A49C1F880021E2001F08EFB7F
:10307000002076490860FFF7BBFF00207449C1F8C3
:10308000800210BD10B56E48006820F440706C4995
:1030900008600846006840F48070086001206949B3
:1030A00008601E2001F072FB00206749C1F8900201
:1030B000FFF79EFF01206549086010BD10B5002490
:1030C0005F48006820F440705D4908600846006869
:1030D000086001205D4908605D49C1F88002FFF782
:1030E00087FF09E0601CC4B2FA2C03DDFFF7CAFFBA
:1030F000012010BDFFF77CFF54488038006800288D
:10310000F0D15049086000BFF3E710B500204D49E9
:1031100008604B48006820F4407049490860084640
:10312000006840F480700860FFF762FF00204649A5
:10313000C1F89002FFF75CFF012042490860FFF7E9
:1031400057FF00204249C1F8800210BD10B5002091
:103150003C4908603A48006820F4407038490860EB
:103160000846006840F480700860FFF741FF0120C6
:103170003549C1F89002FFF73BFF01203149086053
:10318000FFF736FF00203249C1F8800210BD70B54C
:1031900004462B48006820F440702949086008461E
:1031A000006840F480700860002026490860FFF73E
:1031B0001FFF002511E0E009244908606006040EA5
:1031C00001202349C1F88002FFF712FF00201D49AA
:1031D0000860FFF70DFF681CC5B2082DEBDB70BD62
:1031E00070B5054600241648006820F44070144964
:1031F00008600846006808601E2001F0C7FA002633
:1032000012E000200F490860FFF7F2FE012010498C
:10321000C1F880026006040E0C488038006808B1CE
:10322000601CC4B2701CC6B2082EEADB15B9FFF7E9
:103230008DFF01E0FFF769FF204670BD00040240EA
:103240000008024080824042000041429002414218
:10325000008040420EB50121880302F0F1F90121FE
:10326000084602F0F8FA0220009000208DF80400D1
:103270000C208DF8050001208DF80600684602F04C
:1032800031FB07208DF8080002208DF809008DF829
:103290000A0001208DF80B0002A801F004FB0020B9
:1032A000054908700EBD10B50120034908700220C1
:1032B00002F089FB10BD00003600002070B5044606
:1032C000002500BF17E004F0800018B10120FE497E
:1032D000086002E00020FC4908606006040E00203F
:1032E000FA490860012001F051FA0120F849C1F8BB
:1032F0008002681CC5B2082DE5DB70BD70B50646BE
:10330000002500240020F1490860F249C1F890022C
:10331000ED49243108603046FFF7D0FF062001F068
:1033200035FA0020EA49C1F88002012001F02EFAA6
:103330000120E649086001F029FA0020E449C1F8BB
:10334000800200BF15E04FF6FF7000EA4404002041
:10335000DE490860012001F019FA0120DC49C1F8BA
:103360008002DA487838006808B1601C84B2681CB2
:10337000C5B2102DE7DB24110120D34924310860A8
:10338000204670BD2DE9FE4380460027002406E05C
:103390004046FFF7B3FF2DF81400601C84B2052CE3
:1033A000F6DB002416E0601C85B20FE03DF8140047
:1033B0003DF81510884207DD3DF814603DF8150012
:1033C0002DF814002DF81560681C85B2052DEDDB75
:1033D000601C84B2042CE6DB0027012405E03DF8E4
:1033E0001400384487B2601C84B2042CF7DB03203D
:1033F00097FBF0F086B23046BDE8FE832DE9F04140
:1034000004460D46B4480078FFF7BCFF0646B348B3
:103410000078FFF7B7FF074626802F800120BDE820
:10342000F0817FB504460D4602A903A8FFF7E6FF29
:10343000064616B9002004B070BD694601A8FFF722
:10344000DDFF06460EB90020F5E7BDF80400BDF823
:103450000C10884206DCBDF80C10BDF804003230B8
:1034600081420CDBBDF80C00BDF80410884236DC4C
:10347000BDF80410BDF80C00323081422FDABDF8DF
:103480000000BDF80810884206DCBDF80810BDF841
:103490000000323081420CDBBDF80800BDF800109E
:1034A00088421CDCBDF80010BDF8080032308142B3
:1034B00015DABDF80C10BDF80420881800EBD071A7
:1034C000C1F34F012180BDF80810BDF80020881815
:1034D00000EBD071C1F34F0129800120ABE7002040
:1034E000A9E7F8B504460D4616467D48068004F166
:1034F0000D018AB2193988B22B462946FCF721FF03
:1035000005F10D0083B2193881B222462046FCF73E
:1035100018FF6A1C91B2621C90B2FFF73CFA6A1C59
:1035200091B2621E90B2FFF736FA6A1E91B2621C27
:1035300090B2FFF730FA6A1E91B2621E90B2FFF7A6
:103540002AFA002006230090654802882946204672
:10355000FCF791FFF8BD70B504460D46164660486D
:10356000068029462046FFF716FA611C88B22946D4
:10357000FFF711FA681C81B22046FFF70CFA6A1CAB
:1035800091B2621C90B2FFF706FA70BD10B5044606
:103590004E487C38006800284DD12CB15149A1F12A
:1035A0000A00FFF73EFF35E04E49A1F10A00FFF7A0
:1035B00038FF78B34B480A38B0F9200000EE100A03
:1035C000B8EEC00A47480A3890ED061A008800EEA7
:1035D000900AF8EE600A01EE200ABCEEC00A10EE76
:1035E000100A40490A3908800846B0F9220000EE66
:1035F000100AB8EEC00A084690ED071A408900EE9E
:10360000900AF8EE600A01EE200ABCEEC00A10EE45
:10361000100A488133480A38007D00F0800038BB2A
:10362000C02030490A3908750846008808810846D4
:10363000418941821CE02B480A38007D00F080005F
:1036400040B128480A38007D20F0800025490A3919
:1036500008750DE0002023490A390881002121481E
:103660000A3841824FF6FF701E490A3908804881A6
:103670001C480A38007D00F0800010BD10B51948C4
:103680000A3890ED060ADFED180A20EE200ABDEE9A
:10369000C00A10EE104A042221462820FEF7AEFE92
:1036A00010480A3890ED070ADFED0F0A20EE200AD5
:1036B000BDEEC00A10EE104A042221462C20FEF76F
:1036C0009DFE08480A3811E0900241428082404243
:1036D00000804042000041423800002039000020B4
:1036E000300000207200002020BCBE4CB0F9201039
:1036F00002223020FEF782FEF848B0F922100222A2
:103700003220FEF77BFEF54890F824103420FEF7B7
:103710004DFE0A2421463520FEF748FE10BD10B5A7
:103720003520FEF717FE04460A2C46D10421282036
:10373000FEF779FE044600EE104AB8EEC00A5FEDCF
:10374000160A80EE201AE54880ED061A04212C2086
:10375000FEF769FE044600EE104AB8EEC00A5FEDBF
:103760001E0A80EE201ADD4880ED071A0221302063
:10377000FEF759FE00B2D949088402213220FEF733
:1037800052FE00B2D54948843420FEF7E3FDD34908
:1037900081F82400084690F8240030B19020D049E8
:1037A0000870D020CF49087005E0D020CC490870BF
:1037B0009020CC490870012010BD0020FCE72DE9C5
:1037C000F84F04460D4617461E46DDE90CABDDE911
:1037D0000A894FF47840C44908800120C3A310220D
:1037E0008C2100902820FDF7E5F80120C0A31022CD
:1037F0008C2100907820FDF7DDF80120BDA3102278
:10380000A02100902820FDF7D5F80120BAA31022AE
:10381000A02100907820FDF7CDF80120B7A3102259
:10382000B42100902820FDF7C5F80120B4A3102290
:10383000B42100907820FDF7BDF80120B1A310223B
:10384000C82100902820FDF7B5F80120AEA3102272
:10385000C82100907820FDF7ADF80120ABA310221D
:10386000DC2100902820FDF7A5F810200423224633
:103870008C2100904020FDF7D7F8102004232A4621
:103880008C2100909020FDF7CFF8102004233A46B9
:10389000A02100904020FDF7C7F8102004233246F5
:1038A000A02100909020FDF7BFF81020042342468D
:1038B000B42100904020FDF7B7F8102004234A46B9
:1038C000B42100909020FDF7AFF810200423524659
:1038D000C82100904020FDF7A7F8102004235A4685
:1038E000C82100909020FDF79FF81020032300903E
:1038F000DC2160200E9AFDF797F8BDE8F88F2DE9DE
:10390000F0472DED068B8AB04FF00008C14600BF8E
:103910001F20754908804FF6FF707E490880FFF729
:103920005EF84FF47840704908804FF6FF70FFF75B
:1039300056F800206C490880012077A31022282126
:1039400000900A20FDF736F801207AA310223821D2
:1039500000900A20FDF72EF801207DA310224821B7
:1039600000900A20FDF726F8012080A3102258219C
:1039700000900A20FDF71EF8012083A31022682181
:1039800000900A20FDF716F84FF4784214210846FB
:10399000FFF7A7FD0020514908759FED7F0A0846F3
:1039A00080ED060AE3E30120FFF7F0FD4B48007DC0
:1039B00000F0C00040286FD14FF000094748007D5B
:1039C00020F04000454908750846008806A921F8FE
:1039D00028004248408901EB8801488008F1010035
:1039E00000F0FF08B8F1010F09D0B8F1020F16D0AE
:1039F000B8F1030F26D0B8F1040F0FD138E04FF61D
:103A0000FF7214210846FFF76CFD644909881439D8
:103A100088B24FF478421421FFF763FD98E35F49C1
:103A20000988143988B24FF6FF721421FFF759FD47
:103A30005A484088143881B24FF478421420FFF776
:103A400050FD85E355484088143881B24FF6FF7227
:103A50001420FFF746FD514A5288143A91B24F4A5A
:103A60001288143A90B24FF47842FFF73AFD6FE3B0
:103A7000BDF81810BDF81C20881A002801DB01468B
:103A800000E041420C46BDF81A20BDF81E10501A45
:103A9000002802DB014601E05BE341420D4664433E
:103AA0006D43601902F0A3FA41EC1A0BB0EE4A0A1A
:103AB000F0EE6A0A02F01EFAB0EE409AF0EE609A5A
:103AC00051EC190B02F066FA86B2BDF82010BDF871
:103AD0002420881A002863DB014662E06800002089
:103AE00038000020390000203000002078313A00F2
:103AF00079313A0078323A0079323A0078333A0034
:103B000079333A0078343A0079343A0066616320B8
:103B100069733A0032000020506C6561736520754E
:103B2000736520746865207374796C757320636C99
:103B300069636B007468652063726F7373206F6EC6
:103B4000207468652073637265656E2E0000000046
:103B50005468652063726F73732077696C6C2061A1
:103B60006C77617973206D6F76650000756E74698E
:103B70006C207468652073637265656E2061646A89
:103B80007573746D656E7400697320636F6D706C0E
:103B9000657465642E0000000000000058000020DD
:103BA00041420C46BDF82220BDF82610501A0028CC
:103BB00001DB014600E041420D4664436D4360195C
:103BC00002F015FA41EC1A0BB0EE4A0AF0EE6A0A5E
:103BD00002F090F9B0EE409AF0EE609A51EC190BB9
:103BE00002F0D8F987B200EE106AF8EE400A00EE53
:103BF000107AB8EE400A80EE801A11EE10AA5046F4
:103C000002F044FC41EC180B9FEDFE0B53EC102B23
:103C100051EC180B02F0FEF90AD39FEDFC0B53ECAC
:103C2000102B51EC180B02F02FFB01D306B1CFBBC8
:103C30004FF00008F74A5288143A91B2F54A1288B8
:103C4000143A90B24FF6FF72FFF74BFC4FF47842F4
:103C500014210846FFF745FC9FEDEF0B53EC102BAA
:103C600051EC180B02F012FA41EC190B02F092F928
:103C70001FFA80FABDF82600BDF82410BDF82220F6
:103C8000CDE9030ACDE90121BDF820000090BDF87F
:103C90001E30BDF81C20BDF81A10BDF81800FFF743
:103CA0008EFD64E2FFE7BDF81810BDF82020881AE9
:103CB000002801DB014600E041420C46BDF81A2015
:103CC000BDF82210501A002801DB014600E04142F5
:103CD0000D4664436D43601902F089F941EC1A0BFB
:103CE000B0EE4A0AF0EE6A0A02F004F9B0EE409A29
:103CF000F0EE609A51EC190B02F04CF986B2BDF867
:103D00001C10BDF82420881A002801DB014600E0C1
:103D100041420C46BDF81E20BDF82610501A00285E
:103D200001DB014600E041420D4664436D436019EA
:103D300002F05DF941EC1A0BB0EE4A0AF0EE6A0AA5
:103D400002F0D8F8B0EE409AF0EE609A51EC190B00
:103D500002F020F987B200EE106AF8EE400A00EE99
:103D6000107AB8EE400A80EE801A11EE10AA504682
:103D700002F08CFB41EC180B9FEDA20B53EC102BC7
:103D800051EC180B02F046F908D39FEDA00B53EC51
:103D9000102B51EC180B02F077FA39D24FF00008D3
:103DA0009C4A5288143A91B29A4A1288143A90B2B4
:103DB0004FF6FF72FFF795FB4FF478421421084647
:103DC000FFF78FFB9FED940B53EC102B51EC180B6E
:103DD00002F05CF941EC190B02F0DCF81FFA80FAF2
:103DE000BDF82610BDF82400BDF82220CDE9031A45
:103DF000CDE90120BDF820000090BDF81E30BDF8CF
:103E00001C20BDF81A10BDF81800FFF7D8FCAEE171
:103E1000BDF81C10BDF82020881A002801DB0146DF
:103E200000E041420C46BDF81E20BDF82210501A99
:103E3000002801DB014600E041420D4664436D432A
:103E4000601902F0D4F841EC1A0BB0EE4A0AF0EE19
:103E50006A0A02F04FF8B0EE409AF0EE609A51EC28
:103E6000190B02F097F886B2BDF81810BDF824209F
:103E7000881A002801DB014600E041420C46BDF8EB
:103E80001A20BDF82610501A002801DB014600E078
:103E900041420D4664436D43601902F0A8F841ECBD
:103EA0001A0BB0EE4A0AF0EE6A0A02F023F8B0EEFE
:103EB000409AF0EE609A51EC190B02F06BF887B261
:103EC00000EE106AF8EE400A00EE107AB8EE400AF2
:103ED00080EE801A11EE10AA504602F0D7FA41EC9B
:103EE000180B9FED480B53EC102B51EC180B02F004
:103EF00091F808D39FED450B53EC102B51EC180BA8
:103F000002F0C2F939D24FF00008424A5288143AFE
:103F100091B2404A1288143A90B24FF6FF72FFF7FE
:103F2000E0FA4FF4784214210846FFF7DAFA9FEDE1
:103F30003A0B53EC102B51EC180B02F0A7F841ECA4
:103F4000190B02F027F81FFA80FABDF82600BDF819
:103F50002410BDF82220CDE9030ACDE90121BDF8E6
:103F600020000090BDF81E30BDF81C20BDF81A10CE
:103F7000BDF81800FFF723FCF9E0BDF81C00BDF800
:103F80001810401A00EE100AF8EEC00A2148008806
:103F9000283800EE100AB8EEC00A80EE201A204839
:103FA00080ED061ABDF81C00BDF81810084400EE9C
:103FB000100AF8EEC00A1748008800EE100AB8EEA2
:103FC000400A174890ED061A01EE600AF0EE000A6A
:103FD00080EE201ABDEEC10A10EE100A00B21049A0
:103FE0000884BDF82200BDF81A10401A00EE100A2D
:103FF000F8EEC00A07484088283800EE100AB8EEEC
:10400000C00A0FE0666666666666EE3FCDCCCCCC35
:10401000CCCCF03F580000200000000000005940C8
:104020006800002080EE201A734880ED071ABDF862
:104030002200BDF81A10084400EE100AF8EEC00A7B
:104040006E48408800EE100AB8EE400A6A4890EDCB
:10405000071A01EE600AF0EE000A80EE201ABDEEAB
:10406000C10A10EE100A00B2634948840A4692ED74
:10407000060ABDEEC00A10EE101A002901DB0A463E
:1040800000E04A42022A0DDC5B4A92ED070ABDEECF
:10409000C00A10EE100A002801DB024600E042428E
:1040A000022A37DD4FF00008544A5288143A91B280
:1040B000524A1288143A90B24FF6FF72FFF711FA83
:1040C0004FF4784214210846FFF70BFA01204CA365
:1040D00010221A2100902820FCF76CFC464890F82A
:1040E000240008B9012000E00020434981F82400A1
:1040F000084690F8240030B1902046490870D0203E
:104100004549087005E0D020424908709020424996
:1041100008702CE01F20414908804FF6FF70FEF721
:104120005EFC01203EA310226E2100902320FCF7AC
:1041300041FC4FF47A7000F071FBFFF79FFA4FF6E5
:10414000FF70FEF74CFC0AB0BDEC068BBDE8F087B3
:1041500000BF0A2000F062FB09F101001FFA80F99C
:10416000B9F57A7F02DDFFF7DAFA01E000BF1AE461
:1041700000BF00BFE7E71CB50121062001F006FAE9
:104180000620009000208DF804008DF80600032022
:104190008DF8050001208DF807006946264800F0DB
:1041A00073FC012000908DF804006946224800F05D
:1041B0006BFC42F21000009001208DF8040069466B
:1041C0001E4800F061FC0C490A310B48FFF716F954
:1041D000FEF7BCF8FFF7A3FA08B100201CBD4FF6AC
:1041E000FF70FEF7FCFBFFF78AFBFFF747FAFFF7CC
:1041F00096FA0120F2E70000680000205800002035
:104200005450204E65656420726561646A757374EC
:10421000210000003800002039000020300000207C
:10422000546F7563682053637265656E2041646ADC
:10423000757374204F4B21000004024000080240B7
:1042400010B504460020FE490860204600F0E6FA5A
:10425000FC48006820F00C00FA4908600846006835
:10426000086010BD10B504460120F5490860F64904
:10427000C1F8B402142000F0D1FA0020F34908601C
:10428000F349C1F88402142000F0C8FA282C01D1A7
:10429000012000E00020EA490860142000F0BEFA86
:1042A0000120E949C1F8B402142000F0B7FA10BDAA
:1042B00010B50020E54908600A2000F0AFFA01209F
:1042C000E149C1F8B4020A2000F0A8FA10BD1CB5FB
:1042D0000121062001F05AF90220009000208DF8FB
:1042E00004008DF8060003208DF8050001208DF8EC
:1042F00007006946D34800F0C7FB4FF40050009018
:1043000001208DF804006946D24800F0BDFBFEF79D
:1043100074FED048006820F04060CE49086008462E
:10432000006840F080600860C648006820F00C001B
:10433000C44908600846006840F004000860FFF7C0
:10434000B7FF1CBD70B50446FEF77DFEBA20FEF730
:104350001EFFFEF7B3FE2012FEF719FFFEF7AEFEBA
:10436000E0B2FEF714FFFEF7A9FE0125284670BD56
:1043700070B505460C46FEF766FE2846FFF7E2FFDD
:104380002046FEF704FFFEF799FEFEF77BFE0126AE
:10439000304670BD2DE9F04107460D4616464FF0F8
:1043A0000008FEF750FE3846FFF7CCFFFEF74BFE45
:1043B000142000F0EBF9BB20FEF7E9FEFEF77EFECD
:1043C00000240BE0691EA14201D0012100E0002180
:1043D0000846FEF705FF3055601CC4B2AC42F1DB65
:1043E000FEF750FE4FF001084046BDE8F08108B5E9
:1043F000FFF76DFFBA20FFF735FF3220FFF720FFF0
:104400006A46042148F24010FFF7C4FF9DF80000FF
:10441000392801D1012008BD0020FCE708B50020A3
:1044200000906A46012148F24E10FFF7B3FF9DF855
:10443000000000F00F0008BDF0B58BB0002400278D
:1044400085480078401C84490870084600780A2195
:1044500090FBF1F201FB120018B17F4800780A28A6
:104460007DDA6A462A2148F24E10FFF793FF9DF845
:10447000000000F0800058B19DF8000000F00F002F
:10448000062805DA0025294648F24E10FFF770FF8E
:104490009DF8000000F00F00002860D09DF800009B
:1044A00000F00F000628DBDA00241EE0012000EBFC
:1044B000C4001DF80000052813D2DFE800F00F0C3F
:1044C0000906030045F010050CE045F0080509E079
:1044D00045F0040506E045F0020503E045F001055E
:1044E00000E000BF00BF601CC4B29DF8000000F0F7
:1044F0000F00A042DADC5948067D45F0C00057495C
:1045000008750846008808810846418941820024D0
:10451000BAE05248007D0121A1400840002827D080
:104520004F48807928BB022000EBC4001DF8000032
:10453000032101EBC4011DF8011000EB012081B241
:1045400046480A3020F81410042000EBC4001DF87F
:104550000000052101EBC4011DF8011000E0CAE0D4
:1045600000EB01203E490988081A3C4921F8140053
:1045700088E03B488079012820D1022000EBC4006C
:104580001DF80000032101EBC4011DF8011000EB30
:104590000120324921F81400042000EBC4001DF86A
:1045A0000000052101EBC4011DF8011000EB012002
:1045B00081B22A480A3020F8141063E02848807934
:1045C000022822D100EBC4001DF80000032101EBFA
:1045D000C4011DF8011000EB012021494988081A87
:1045E00081B21E480A3020F81410042000EBC400E9
:1045F0001DF80000052101EBC4011DF8011000EBBE
:104600000120164921F814003CE015488079032860
:1046100038D1022000EBC4001DF80000032101EB9B
:10462000C4011DF8011000EB01200D490988081A8A
:104630000A4921F81400042000EBC40012E0000035
:10464000848240420004024000004142B4024142E0
:104650000080404200080240400000206800002026
:10466000580000201DF80000052101EBC4011DF8D1
:10467000011000EB012035494988081A81B23448FD
:1046800020F81410601CC4B2052CFFF642AF0127BD
:104690002F480A3800882D490988884206DC2C48B2
:1046A0000A38408929494988884221DD9DF800005F
:1046B00000F00F0001280CDD25480A384088244905
:1046C0000A390880084680894881002021490870FD
:1046D00011E01F480A3800891D490A390880084638
:1046E000408A488180208DF800000846067502E067
:1046F0000020184908709DF8000000F08F00802805
:1047000019D113480A38007D00F0800040B11048EC
:104710000A38007D20F080000D490A3908750AE04A
:104720004FF6FF700A490A39088048810846007D23
:1047300000F0E000087507480078F02802DD0A2044
:104740000449087038460BB0F0BD00005800002046
:10475000720000204000002010B504466FF00400F5
:1047600000F0EEF8E11704EB5171C1F3C701394ACB
:1047700011701046007800EB4001C1EBC0104FF6FD
:10478000FF7101EAC0003449088010BD0146314A7A
:1047900012784A434FF0E0235A6100229A611A4688
:1047A000126942F001021A6100BF4FF0E022106965
:1047B00000F001021AB100F48032002AF5D04FF067
:1047C000E022126922F001024FF0E0231A61002278
:1047D0009A6170470146204A12884A434FF0E0230D
:1047E0005A6100229A611A46126942F001021A6166
:1047F00000BF4FF0E022106900F001021AB100F48E
:104800008032002AF5D04FF0E022126922F0010236
:104810004FF0E0231A6100229A61704770B5044698
:104820004FF4077094FBF0F0C6B24FF4077094FB9E
:10483000F0F100FB114085B205E04FF40770FFF77F
:10484000C9FF701EC6B2002EF7D115B12846FFF77A
:10485000C1FF70BD4200002044000020094880478D
:1048600009480047FEE7FEE7FEE7FEE7FEE7FEE752
:10487000FEE7FEE7FEE7FEE704480549054A064B6A
:1048800070470000A510000889010008D801002029
:10489000D8070020D8030020D80300203249014364
:1048A000324A1160704770B5002100230F22C4788E
:1048B0001CB32E4C246804F4E064C4F5E064C4F333
:1048C0000721C1F10404E3B20A4144789C40E1B2FB
:1048D0008478144021430C07210E254C057861553E
:1048E000047804F01F050124AC4005786D11AD007B
:1048F00005F1E025C5F8004109E0047804F01F0542
:104900000124AC401B4D0678761145F8264070BD59
:10491000194A0A400243154B1B1F1A60704739B1F0
:10492000124A121D12680243104B1B1D1A6006E04A
:104930000E4A121D126882430C4B1B1D1A607047F1
:10494000042808D14FF0E021096941F004014FF03B
:10495000E022116107E04FF0E021096921F0040134
:104960004FF0E022116170470000FA050CED00E005
:1049700000E400E080E100E080FFFF1F10B5044686
:104980009848844208D10121084600F06AFE0021BF
:10499000012000F066FE76E09348844208D10121B0
:1049A000022000F05EFE0021022000F05AFE6AE0C4
:1049B0008E48844208D10121042000F052FE0021DB
:1049C000042000F04EFE5EE08948844208D10121B7
:1049D000082000F046FE0021082000F042FE52E0D0
:1049E0008448844208D10121102000F03AFE0021C1
:1049F000102000F036FE46E07F48844208D10121B5
:104A0000202000F02EFE0021202000F02AFE3AE0B7
:104A10007A48844208D10121402000F022FE002182
:104A2000402000F01EFE2EE07548844208D101218E
:104A3000802000F016FE0021802000F012FE22E00F
:104A40007048844208D10121801500F00AFE00213F
:104A5000A01500F006FE16E06B48844208D1012143
:104A6000401500F0FEFD0021601500F0FAFD0AE09F
:104A70006648844207D10121001500F0F2FD0021B3
:104A8000201500F0EEFD10BDF0B50A460021002310
:104A9000002400BF3DE0012505FA01F3156805EA91
:104AA00003049C4234D105684F000326BE40B54341
:104AB000056015794E00B5400668354305601579E7
:104AC000012D02D01579022D16D185684F000326DD
:104AD000BE40B543856055794E00B5408668354384
:104AE0008560456801268E40B543456045689679E6
:104AF0008E40B6B235434560C5684F000326BE40C0
:104B0000B543C560D5794E00B540C6683543C5602C
:104B1000491C1029BFD3F0BD4FF6FF710160002181
:104B2000017141718171C171704708B54FF48032D4
:104B30000092009A0A430092009AC261C161009AF1
:104B4000C261C2690092C269009208BD024600209B
:104B500013690B400BB1012000E0002070470146B3
:104B6000086980B270470246002053690B400BB1C0
:104B7000012000E0002070470146486980B270477C
:104B800001837047418370470AB1018300E041838C
:104B900070474161704742694A4042617047F0B5D1
:104BA000002300244D07ED0E02FA05F3CE1000F1AC
:104BB000200555F826504E07F70E0F26BE40B54388
:104BC000CF1000F1200646F82750CE1000F1200546
:104BD00055F8265045EA0304CE1000F1200545F8AB
:104BE0002640F0BD000002400004024000080240E0
:104BF000000C024000100240001402400018024065
:104C0000001C024000200240002402400028024014
:104C100030B943F2DB028100A1F1C0410A6005E036
:104C200043F2D2028100A1F1C0410A606FF07042EC
:104C3000411C8900A1F1C0410A608100A1F1C0417D
:104C4000C1F804217047D0E901121143C268114331
:104C5000026911434269114382691143C2691143D8
:104C6000026A1143426A1143826A1143C26A1143C4
:104C7000026B114302689200A2F1C0421160816888
:104C800008290BD101688900A1F1C041096841F0F0
:104C9000400201688900A1F1C0410A60416B0968C6
:104CA000426B526841EA0211426B926841EA02216A
:104CB000426B928941EA0241426B128A41EA0251F7
:104CC000426B127D41EA0261426B926911430268B4
:104CD000521C9200A2F1C0421160C16AB1F5804F2E
:104CE0001BD1816B0968826B526841EA0211826BA9
:104CF000926841EA0221826B128A41EA0251826B78
:104D0000127D41EA0261826B92691143026892004E
:104D1000A2F1C042C2F8041107E06FF070420168CE
:104D20008900A1F1C041C1F8042170470021016050
:104D30000221416000218160C160016141618161A6
:104D4000C16101624FF480514162490081620021DA
:104D5000C1620163F84941638163704751B18200C8
:104D6000A2F1C042126842F001038200A2F1C042E7
:104D7000136009E08200A2F1C0421268EF4B1A40B2
:104D80008300A3F1C0431A60704710280AD118218C
:104D90004FF020421166402151664FF0FC31916680
:104DA000D16610E01821E64A116040214FF0204200
:104DB000C2F884104FF0FC31E14A083211604FF024
:104DC0002042C2F88C10704730B500210022002329
:104DD000446844F0080485682C43C5682C43056981
:104DE0002C43456944EA4524856944EA4531C46950
:104DF0002468C5696D6844EA0524C5692D8944EABB
:104E00000544C5692D7B44EA0562046A2468056A85
:104E10006D6844EA0524056A2D8944EA0544056A5B
:104E20002D7B44EA05630468102C05D14FF0204423
:104E30002166A266E36608E0C14C21604FF0204481
:104E4000C4F88820BE4C0C34236030BD10210160B2
:104E5000002141608160C160016141618161FC218B
:104E6000C2691160C2695160C2699160C269D16052
:104E7000026A1160026A5160026A9160026AD1603E
:104E8000704799B1102808D14FF02042126E42F0BD
:104E900004024FF020431A661DE0A94A126842F04E
:104EA00004024FF02043C3F8802014E0102809D1F9
:104EB0004FF02042126EA14BDB1E1A404FF02043F0
:104EC0001A6608E09E4A12689C4BDB1E1A404FF09F
:104ED0002043C3F88020704799B1102808D14FF0C3
:104EE0002042126E42F040024FF020431A661DE04D
:104EF000934A126842F040024FF02043C3F88020EA
:104F000014E0102809D14FF02042126E8B4B3F3B2A
:104F10001A404FF020431A6608E0894A1268874B0E
:104F20003F3B1A404FF02043C3F8802070470146B2
:104F30000020102903D14FF02042506F02E0804A38
:104F400014321068704718207D4920310860002015
:104F50000906C1F8A4004FF0FC30794928310860F7
:104F6000091D0860091D08607047016841F01001C3
:104F7000426841EA4221826841EA4231704A203265
:104F80001160C1680968C268526841EA0221C268BA
:104F9000128941EA0241C268127B41EA0261684A11
:104FA00028321160016909680269526841EA0221E8
:104FB0000269128941EA02410269127B41EA0261F7
:104FC0005F4A2C321160416909684269526841EABE
:104FD00002214269128941EA02414269127B41EA97
:104FE00002614FF02042C2F8B0107047002101600A
:104FF00041608160FC21C2681160C2685160C26872
:105000009160C268D16002691160026951600269F1
:1050100091600269D16042691160426951604269E0
:1050200091604269D160704748B1454920310968B3
:1050300041F004014FF02042C2F8A01009E04049BD
:10504000203109683D4AD21E11404FF02042C2F87B
:10505000A010704710B5F2B1102807D14FF02043CF
:105060005B6E0B434FF02044636632E0B0F5807F07
:1050700008D1334B1B1D1B680B434FF02044C4F871
:10508000843026E02E4B24331B680B434FF0204422
:10509000C4F8A4301DE0102807D14FF020435B6E08
:1050A0008B434FF02044636613E0B0F5807F08D156
:1050B000234B1B1D1B688B434FF02044C4F88430E6
:1050C00007E01F4B24331B688B434FF02044C4F888
:1050D000A43010BD10B5024600200023102A03D1D1
:1050E0004FF02044636E09E0B2F5807F03D1144C89
:1050F000241D236802E0124C2434236803EA0104CF
:105100000CB1012000E0002010BD102807D14FF0A5
:105110002042526E8A434FF020435A6619E0B0F5A0
:10512000807F0FD1064A121D12688A434FF0204338
:10513000C3F884200DE00000F4890008FEFF0F0092
:10514000800000A0234A12688A434FF02043C3F82E
:10515000A420704770B502460020002300240025DB
:10516000102A03D14FF02046736E08E0B2F5807F1D
:1051700003D1184E203E336801E0164E336803EA2F
:10518000010403EAD10514B10DB1012000E00020B3
:1051900070BD102808D14FF02042526E22EAD10291
:1051A0004FF020435A6614E0B0F5807F09D1094AD8
:1051B000203A126822EAD1024FF02043C3F884203B
:1051C00007E0044A126822EAD1024FF02043C3F8F4
:1051D000A4207047A40000A0F948006840F0010036
:1051E000F74908600020F64908310860F448006873
:1051F000F4490840F2490860F348091D0860F34883
:10520000EF4984310860F0481038091D0860EC4807
:10521000006820F48020EA4908600020E8490C3149
:105220000860E7498C31086070470021E44A921C0D
:10523000117011460870704710B501460022002316
:1052400000204A11012A02D1DD4C236808E0022A1D
:1052500003D1DB4C7034236802E0D94C74342368EA
:1052600001F01F02012494401C400CB1012000E019
:10527000002010BD38B5002000900024002500BF9C
:105280003120FFF7D9FF05460098401C0090009898
:10529000B0F5A04F01D0002DF2D03120FFF7CCFFA8
:1052A00008B1012400E00024204638BD014600205A
:1052B000C34A106820F0F80040EAC100106070474F
:1052C000C349086070470021BD4A703211701170E7
:1052D000012802D004280AD104E00121B84A703222
:1052E000117005E00521B64A7032117000E000BF70
:1052F00000BF7047B7490860704770B5049C41EA29
:1053000082150126C6EB530645EA0645054345EAE4
:105310000465AB4E361D356070BDAD4908667047FB
:10532000820142EA0172A64B84331A607047A84991
:105330008866704710B5830143EA016343EA02734C
:105340009F4C8834236010BDA14908677047A0496D
:10535000C864704702460020994B0833186820F053
:10536000EC6042EA01031843954B0833186070471C
:1053700002460020924B0833186820F0784042EA39
:10538000010318438E4B0833186070470146002014
:105390008B4A0832106820F0030008431060704701
:1053A00087480830006800F00C0070470146002074
:1053B000834A0832106820F0F000084310607047FC
:1053C000014600207E4A0832106820F4E05008436D
:1053D0001060704701460020794A0832106820F4B6
:1053E000604040EAC10010607047F0B50021002223
:1053F0000024022500260223714F08373F6807F07A
:105400000C0121B1042905D0082937D105E0724FDC
:10541000076036E0714F076033E0694F3F1D3F681A
:10542000C7F38056664F3F1D3F6807F03F036EB1DC
:105430006A4FB7FBF3F7DFF888C10CF1040CDCF816
:1054400000C0CCF3881C07FB0CF40CE0624FB7FBE8
:10545000F3F7DFF86CC10CF1040CDCF800C0CCF3FE
:10546000881C07FB0CF4564F3F1D3F68C7F30147EC
:105470007F1C7D00B4FBF5F7076002E0564F076024
:1054800000BF00BF4E4F08373F6807F0F001090921
:10549000534F7A5C0768D7404760494F08373F68E9
:1054A00007F4E051890A4E4F7A5C4768D74087601D
:1054B000434F08373F6807F46041490B484F7A5C17
:1054C0004768D740C760F0BD002100F44072B2F5D4
:1054D000407F0AD13A4A0832116821F4F811414A52
:1054E00002401143364A08321160354A7032126860
:1054F000C0F30B031A43324B70331A6070473549BF
:10550000443908607047334940390860704736496C
:105510000860704701460020294A8C32106820F04C
:105520001F004A1E1043264A8C3210607047014605
:105530000020234A8C32106820F4F8504A1E40EABA
:1055400002201F4A8C3210607047014600201C4A1E
:105550008C32106820F440100843106070470146F8
:105560000020174A8C32106820F440000843106075
:10557000704701460020124A8C32106820F44030F7
:1055800008431060704719490860704739B10C4AE8
:105590003032126802430A4B30331A6006E0084A80
:1055A000303212688243064B30331A607047F9B1CB
:1055B000034A343212680243014B34331A601CE050
:1055C00000380240FFFFF6EA1030002400300020CF
:1055D00000004742800E47420024F40000127A0087
:1055E00046000020FFFCFF0F5C014742E0114742EC
:1055F0008F4A126882438E4B1A60704739B18C4AC9
:10560000121D126802438A4B1B1D1A6006E0884A6D
:10561000121D12688243864B1B1D1A60704739B1F8
:10562000834A0C3212680243814B0C331A6006E045
:105630007F4A0C32126882437D4B0C331A607047EC
:1056400039B17B4A103212680243794B10331A6029
:1056500006E0774A103212688243754B10331A60A5
:10566000704739B1724A243A12680243704B243BA6
:105670001A6006E06E4A243A126882436C4B243B5F
:105680001A60704739B16A4A203A12680243684B7F
:10569000203B1A6006E0664A203A12688243644B57
:1056A000203B1A60704739B1614A1C3A12680243C4
:1056B0005F4B1C3B1A6006E05D4A1C3A126882434D
:1056C0005B4B1C3B1A60704739B1594A143A126857
:1056D0000243574B143B1A6006E0554A143A1268CD
:1056E0008243534B143B1A60704739B1504A103A09
:1056F000126802434E4B103B1A6006E04C4A103AC7
:10570000126882434A4B103B1A60704739B1484ACD
:105710001C3212680243464B1C331A6006E0444AAE
:105720001C3212688243424B1C331A60704739B1F5
:105730003F4A2032126802433D4B20331A6006E094
:105740003B4A203212688243394B20331A6070473B
:1057500039B1374A243212680243354B24331A6078
:1057600006E0334A243212688243314B24331A60F4
:10577000704739B12E4A2C32126802432C4B2C331D
:105780001A6006E02A4A2C3212688243284B2C33D6
:105790001A60704739B1264A303212680243244BEE
:1057A00030331A6006E0224A303212688243204BBE
:1057B00030331A607047012808D11D493C3109680F
:1057C00041F008011A4A3C32116007E018493C31A7
:1057D000096821F00801164A3C321160704739B15E
:1057E000134A273A12780243114B273B1A7006E0FE
:1057F0000F4A273A127882430D4B273B1A707047A5
:105800000B484030006840F0807009494031086022
:10581000704701460020064A283A12680A400AB139
:10582000012000E0002070470149263908707047C8
:105830003438024010B501218803FFF756FF0021DC
:105840004FF48040FFF751FF10BD1C4908607047BE
:105850001B490862704730B500228B071C0F0F23CD
:1058600003FA04F2154B08338C1053F82430934399
:10587000124C08348D1044F8253023468C1053F810
:1058800024308C07240F00FA04F423430B4C083413
:105890008D1044F8253030BD0949DC31086070476F
:1058A000084908607047002004492031096801F464
:1058B000807109B1012000E00020704700380140EC
:1058C0000000274200042742002041490860091DCA
:1058D0000860091D0860091D08603E483C491431F4
:1058E0000860704700213A498279002A3AD00A4676
:1058F000126803689A430B461A600A1D126803680F
:105900009A430B1D1A60027911440A6803681A430E
:105910000A602F4A0832126803689A432C4B0833F6
:105920001A601A1D126803689A43294B0C331A60D7
:105930004279102A0ED11A1F126803681A43244BA9
:1059400008331A601A1D126803681A43204B0C337F
:105950001A600DE01E49427911440A6803681A432F
:105960000A6005E0027911440A6803689A430A60F4
:1059700070470021016001710C214171002181718A
:1059800070471349103109680143114A1032116000
:105990007047014600200E4A143212680A400AB1CC
:1059A000012000E000207047094914310860704769
:1059B00001460020064A143212680A400AB101204A
:1059C00000E0002070470249143108607047000071
:1059D000003C0140FFFF7F000FB41CB5074B06AA37
:1059E0007B4469460090059800F017FA002069464C
:1059F00000F026FA1CBC5DF814FB00005D040000FA
:105A000070B5044685690068C10601D5302600E0FE
:105A10002026C00707D070BDD4E901213046904749
:105A2000206A401C20626D1EF6D570BD70B504461C
:105A300085690078C00707D170BDD4E90121202015
:105A40009047206A401C20626D1EF6D570BD70B56F
:105A50000C460546012A05D02878800600D5EA695B
:105A6000002302E0012305E05B1C934202D2E05CCC
:105A70000028F9D1A869E618C01AA861286A184454
:105A800028622846FFF7BCFF04E0D5E9012114F89D
:105A9000010B9047B442F8D32846FFF7C7FF70BD0B
:105AA00070B504460D4621461068AFF3008021888A
:105AB000090502D50F4A7A4402E00E4A7A440E32B2
:105AC000002104F1240305E000F00F060009965DB3
:105AD0005E54491C0028F7D120780023000704D524
